:020000040000FA
:10000000900300200D0300001503000017030000FB
:10001000190300001B0300001D0300000000000086
:100020000000000000000000000000001F030000AE
:100030002103000000000000230300004908000025
:100040009D04000041050000E50500008906000050
:100050002D070000310300003303000035030000CA
:1000600037030000390300003B0300003D0300009C
:100070003F0300004103000043030000450300006C
:1000800047030000490300004B030000090900007A
:100090004F0300002D090000530300005109000028
:1000A00057030000590300005B0300005D030000DC
:1000B0005F03000061030000D1070000650300003A
:1000C00067030000690300006B030000750900006E
:1000D0006F0300007103000073030000750300004C
:1000E0007703000079030000000000007B0300009C
:1000F0007D0300007F0300008103000083030000F4
:100100008503000087030000890300008B030000C3
:1001100000000000000000008D0300008F030000BD
:100120009103000093030000950300009703000073
:10013000990300009B0300009D0300009F03000043
:1001400000000000000000000000000000000000AF
:10015000A1030000A303000099090000A703000009
:10016000000000000000000000000000000000008F
:10017000000000000000000000000000000000007F
:10018000000000000000000000000000000000006F
:10019000000000000000000000000000000000005F
:1001A000000000000000000000000000000000004F
:1001B000BD090000AB030000E1090000AF0300002F
:1001C000050A0000B3030000290A0000B70300007D
:1001D0004D0A0000BB030000710A0000BF030000CD
:1001E000950A0000C3030000C503000000000000E2
:1001F00000000000C7030000C9030000CB0300009B
:10020000CD030000CF03000000000000000000004C
:10021000D1030000D3030000D5030000D703000082
:10022000D9030000DB030000DD030000DF03000052
:10023000E1030000E3030000E5030000E703000022
:10024000E9030000EB030000ED030000EF030000F2
:10025000F1030000F3030000F5030000F7030000C2
:10026000F9030000FB030000FD03000000F002F8AA
:1002700000F03CF80AA090E8000C82448344AAF104
:100280000107DA4501D100F031F8AFF2090EBAE802
:100290000F0013F0010F18BFFB1A43F001031847BA
:1002A0004428000064280000103A24BF78C878C1B0
:1002B000FAD8520724BF30C830C144BF04680C606C
:1002C000704700000023002400250026103A28BFB4
:1002D00078C1FBD8520728BF30C148BF0B607047B8
:1002E0001FB502F0EBFB1FBD10B510BD00F09BF871
:1002F0001146FFF7F5FF01F0DBFC00F0B9F803B49D
:10030000FFF7F2FF03BC00F0C1F800003F48804750
:100310003F480047FEE7FEE7FEE7FEE7FEE7FEE7B1
:10032000FEE7FEE7FEE7FEE7FEE7FEE7FEE7FEE7A5
:10033000FEE7FEE7FEE7FEE7FEE7FEE7FEE7FEE795
:10034000FEE7FEE7FEE7FEE7FEE7FEE7FEE7FEE785
:10035000FEE7FEE7FEE7FEE7FEE7FEE7FEE7FEE775
:10036000FEE7FEE7FEE7FEE7FEE7FEE7FEE7FEE765
:10037000FEE7FEE7FEE7FEE7FEE7FEE7FEE7FEE755
:10038000FEE7FEE7FEE7FEE7FEE7FEE7FEE7FEE745
:10039000FEE7FEE7FEE7FEE7FEE7FEE7FEE7FEE735
:1003A000FEE7FEE7FEE7FEE7FEE7FEE7FEE7FEE725
:1003B000FEE7FEE7FEE7FEE7FEE7FEE7FEE7FEE715
:1003C000FEE7FEE7FEE7FEE7FEE7FEE7FEE7FEE705
:1003D000FEE7FEE7FEE7FEE7FEE7FEE7FEE7FEE7F5
:1003E000FEE7FEE7FEE7FEE7FEE7FEE7FEE7FEE7E5
:1003F000FEE7FEE7FEE7FEE7FEE7FEE7FEE70000BA
:1004000004480549034A054B704700008D08000069
:100410006D02000090010020900300209001002058
:10042000704770477047754600F02CF8AE460500DF
:100430006946534620F00700854618B020B5FFF7FF
:10044000DFFFBDE820404FF000064FF000074FF0FF
:1004500000084FF0000B21F00701AC46ACE8C009E2
:10046000ACE8C009ACE8C009ACE8C0098D467047EB
:1004700010B50446AFF300802046BDE81040FFF7FA
:100480003EBF0000004870472C01002001491820A1
:10049000ABBEFEE7260002007047000010B508243E
:1004A0002548006800F0010008B100242FE0224830
:1004B0000068C0F3400008B1012428E01E4800682D
:1004C000C0F3800008B1022421E01B480068C0F39B
:1004D000C00008B103241AE017480068C0F30010F8
:1004E00008B1042413E014480068C0F3401008B1B8
:1004F00005240CE010480068C0F3801008B1062401
:1005000005E00D480068C0F3C01000B107240A4898
:10051000001D00680121A14008430749091D08602A
:10052000082C07D0054850F8240018B1034951F8A9
:100530002400804710BD0000184400402400002023
:1005400010B508242548006800F0010008B1002417
:100550002FE022480068C0F3400008B1012428E0E1
:100560001E480068C0F3800008B1022421E01B4847
:100570000068C0F3C00008B103241AE017480068FF
:10058000C0F3001008B1042413E014480068C0F35D
:10059000401008B105240CE010480068C0F380103A
:1005A00008B1062405E00D480068C0F3C01000B192
:1005B00007240A48001D00680121A140084307499B
:1005C000091D0860082C07D0054850F8240018B110
:1005D000034951F82400804710BD00001854004022
:1005E0004400002010B508242548006800F00100F0
:1005F00008B100242FE022480068C0F3400008B191
:10060000012428E01E480068C0F3800008B10224DD
:1006100021E01B480068C0F3C00008B103241AE0C1
:1006200017480068C0F3001008B1042413E0144810
:100630000068C0F3401008B105240CE010480068C1
:10064000C0F3801008B1062405E00D480068C0F32F
:10065000C01000B107240A48001D00680121A14014
:1006600008430749091D0860082C07D0054850F8C1
:10067000240018B1034951F82400804710BD000040
:10068000186400406400002010B508242548006864
:1006900000F0010008B100242FE022480068C0F3F8
:1006A000400008B1012428E01E480068C0F3800023
:1006B00008B1022421E01B480068C0F3C00008B163
:1006C00003241AE017480068C0F3001008B104249E
:1006D00013E014480068C0F3401008B105240CE092
:1006E00010480068C0F3801008B1062405E00D48EA
:1006F0000068C0F3C01000B107240A48001D00685C
:100700000121A14008430749091D0860082C07D0B2
:10071000054850F8240018B1034951F824008047D7
:1007200010BD0000187400408400002010B508249B
:100730002548006800F0010008B100242FE022489D
:100740000068C0F3400008B1012428E01E4800689A
:10075000C0F3800008B1022421E01B480068C0F308
:10076000C00008B103241AE017480068C0F3001065
:1007700008B1042413E014480068C0F3401008B125
:1007800005240CE010480068C0F3801008B106246E
:1007900005E00D480068C0F3C01000B107240A4806
:1007A000001D00680121A14008430749091D086098
:1007B000082C07D0054850F8240018B1034951F817
:1007C0002400804710BD000018440240A40000200F
:1007D00010B508241A48006800F0010008B1002490
:1007E0001AE017480068C0F3400008B1012413E084
:1007F00013480068C0F3800008B102240CE01048E0
:100800000068C0F3C00008B1032405E00C4800688C
:10081000C0F3001000B104240948001D0068012144
:10082000A14008430649091D0860082C07D0054867
:1008300050F8240018B1034951F82400804710BD36
:1008400018540240C400002010B50E48007801285A
:1008500016D10D48006898B10B480068406878B11F
:100860004FF0E020006920F001004FF0E021086126
:1008700005480068406818B103490968486880471E
:1008800010BD000000000020040000201749096886
:1008900041F47001154A11601549164A116716494D
:1008A00011661649116616491167002000E0401CC8
:1008B000B0F57A7FFBD311490E4A116611491167D1
:1008C000002000E0401CB0F57A7FFBD30B49094AB9
:1008D000116611664FF0C0711167002000E0401CE6
:1008E00042F210718842FAD37047000088ED00E0B0
:1008F0001028800700E00F40D13A8E07402D9E005F
:10090000002880010008800110B50648006810B179
:100910000449086880470448406A40F001000249E1
:10092000486210BDE40000200000034010B50648F6
:10093000406810B10449486880470448406A40F064
:1009400001000249486210BDE4000020001003408D
:1009500010B50648806810B104498868804704488B
:10096000406A40F001000249486210BDE4000020E6
:100970000020034010B50648C06810B10449C8689B
:1009800080470448406A40F001000249486210BDB7
:10099000E40000200030034010B50648006910B1A3
:1009A0000449086980470448406A40F00100024950
:1009B000486210BDE40000200040034010B5064826
:1009C000406910B10449486980470448406A40F0D2
:1009D00001000249486210BDE400002000500340BD
:1009E00010B50648806910B10449886980470448F9
:1009F000406A40F001000249486210BDE400002056
:100A00000060034010B50648C06910B10449C869C8
:100A100080470448406A40F001000249486210BD26
:100A2000E40000200070034010B50648006A10B1D1
:100A30000449086A80470448406A40F001000249BE
:100A4000486210BDE400002000C0034010B5064815
:100A5000406A10B10449486A80470448406A40F03F
:100A600001000249486210BDE400002000D00340AC
:100A700010B50648806A10B10449886A8047044866
:100A8000406A40F001000249486210BDE4000020C5
:100A900000E0034010B50648C06A10B10449C86AB6
:100AA00080470448406A40F001000249486210BD96
:100AB000E400002000F0034000280DDB00BF00BF71
:100AC00000F01F02012191404209920002F1E02250
:100AD000C2F8001100BF00BF704700002DE9F041CF
:100AE00000260027B04600240EE00F4A02EB440225
:100AF00051780D4A12F8140001F0A0F88046B8F1C0
:100B0000000F00D00126641C032CEEDB074800F028
:100B100085F8074607B1012601F03EF9054605B103
:100B200001263046BDE8F081150000201E0000209F
:100B300010B51448007801F0E1F9134A114B1B7805
:100B400002EB43025178104A0E4B1B7812F8130047
:100B500001F094F80B480078401C032190FBF1F25F
:100B600001FB1200074908704FF4FA720748017838
:100B70000448007801F0B8F80248007801F048F91C
:100B800010BD00001D000020150000201C000020EA
:100B900008B53BE00020009069461D4800F06CF865
:100BA0009DF8000001281BD11A4908701A480078E6
:100BB0001E2806D03C2808D05A280BD05B2808D124
:100BC00009E03C201449087009E05A2012490870D5
:100BD00005E000BF00BF1E200F49087000BF00BF26
:100BE0000C48007820B1012803D0032807D107E082
:100BF0000AE0FFF79DFF00200649087004E000BFEF
:100C000001200449087000BF00BF00BFC2E7000018
:100C10001E0000201B0000201C00002038B50446E8
:100C200000252CB320788DF8000060788DF8010045
:100C3000A07830B1012805D0022809D003280CD1B2
:100C400007E000BFA078C01CC0B28DF8020006E02B
:100C500000BF00208DF8020001E0012500BF00BFA9
:100C6000684600F08DF800F02FFD0020E07000E0F5
:100C70000225284638BD0000F8B504460D4600267A
:100C800025480078012843D1002C3FD0002D3DD0CD
:100C9000E078002838D1617820786A4600F04AF878
:100CA000A07830B101280DD0022803D0032814D138
:100CB00009E000BF9DF8000008B9012000E0002015
:100CC00028700CE000BF9DF80000287028780128EB
:100CD00002D1C82001F090F901E0012600BF00BF59
:100CE0002878012815D100200B490870012000F058
:100CF00051FC0A49012000F069FD4FF47A72C821C5
:100D0000012000F071FD04E0032602E0022600E06D
:100D100004263046F8BD000012000020210D00001E
:100D200010B501200249087000F060FF10BD0000FE
:100D3000120000202DE9F04104460D46164600271A
:100D4000C6B12946204600F0C0FF07469FB9042CD3
:100D500004DA4FF0402000EB043003E0201F074985
:100D600001EB0030D0F8FC030121A9400840E84025
:100D7000307000E005273846BDE8F08100400240B1
:100D800070B504460025002C75D06178207800F0FD
:100D90009CFF0546002D6FD120786178F84A1268D3
:100DA000012383401A43F64B1A60A278062A74D2B4
:100DB000DFE802F0037BF4F2F1F0042804DA4FF0EC
:100DC000402202EB003203E0021FEE4B03EB023243
:100DD000D2F81C3501228A401343042804DA4FF06C
:100DE000402202EB003203E0021FE64E06EB023225
:100DF000C2F81C35042804DA4FF0402202EB00321E
:100E000003E0021FDF4B03EB0232D2F82835012248
:100E10008A409343042804DA4FF0402202EB003268
:100E200003E0021FD74E06EB0232C2F82835042831
:100E300004DA4FF0402202EB003203E0021FD14BF4
:100E400003EB0232D2F8203401228A409343042873
:100E500004DA4FF0402202EB003203E0021FC94ED9
:100E600006EB0232C2F82034042806DA4FF04022A2
:100E700002EB003205E01FE31FE3021FC14B03EB4F
:100E80000232D2F8003401228A409343042805DA62
:100E90004FF0402202EB003204E092E2021FB94E12
:100EA00006EB0232C2F800348DE2042804DA4FF077
:100EB000402202EB003203E0021FB24B03EB02328E
:100EC000D2F81C3501228A401343042804DA4FF07B
:100ED000402202EB003203E0021FAA4E06EB023270
:100EE000C2F81C35042804DA4FF0402202EB00322D
:100EF00003E0021FA34B03EB0232D2F82835012294
:100F00008A409343042804DA4FF0402202EB003277
:100F100003E0021F9B4E06EB0232C2F8283504287C
:100F200004DA4FF0402202EB003203E0021F954B3F
:100F300003EB0232D2F8203401228A409343042882
:100F400004DA4FF0402202EB003203E0021F8D4E24
:100F500006EB0232C2F82034042804DA4FF04022B3
:100F600002EB003203E0021F864B03EB0232D2F8A1
:100F7000003401228A401343042804DA4FF040224F
:100F800002EB003203E0021F7E4E06EB0232C2F893
:100F9000003418E283E1EBE058E0FFE7042804DACC
:100FA0004FF0402202EB003203E0021F754B03EBCF
:100FB0000232D2F8003401228A409343042804DA32
:100FC0004FF0402202EB003203E0021F6D4E06EBB1
:100FD0000232C2F80034042804DA4FF0402202EB57
:100FE000003203E0021F674B03EB0232D2F81C35DC
:100FF00001228A409343042804DA4FF0402202EB96
:10100000003203E0021F5F4E06EB0232C2F81C35CD
:10101000042804DA4FF0402202EB003203E0021F02
:10102000584B03EB0232D2F8283501228A40134391
:10103000042804DA4FF0402202EB003203E0021FE2
:10104000504E06EB0232C2F8283500BF042804DAFD
:101050004FF0402202EB003203E0021F494B03EB4A
:101060000232D2F81C3501228A401343042804DAE4
:101070004FF0402202EB003203E0021F414E06EB2C
:101080000232C2F81C35042804DA4FF0402202EB89
:10109000003203E0021F3B4B03EB0232D2F828354B
:1010A00001228A409343042804DA4FF0402202EBE5
:1010B000003203E0021F334E06EB0232C2F828353D
:1010C000042804DA4FF0402202EB003203E0021F52
:1010D0002C4B03EB0232D2F8203401228A40934396
:1010E000042804DA4FF0402202EB003203E0021F32
:1010F000244E06EB0232C2F82034042804DA4FF002
:10110000402202EB003203E0021F1E4B03EB0232CF
:10111000D2F8003401228A409343042804DA4FF0C5
:10112000402202EB003203E0021F164E06EB0232B1
:10113000C2F80034042804DA4FF0402202EB0032F7
:1011400003E0021F0F4B03EB0232D2F810350122ED
:101150008A401343042804DA4FF0402202EB0032A5
:1011600003E0021F074E06EB0232C2F810352AE1F7
:10117000042809DA4FF0402202EB003208E00000B8
:1011800008E60F4000400240021FCD4B03EB023245
:10119000D2F81C3501228A401343042804DA4FF0A8
:1011A000402202EB003203E0021FC54E06EB023282
:1011B000C2F81C35042804DA4FF0402202EB00325A
:1011C00003E0021FBE4B03EB0232D2F828350122A6
:1011D0008A409343042804DA4FF0402202EB0032A5
:1011E00003E0021FB64E06EB0232C2F8283504288F
:1011F00004DA4FF0402202EB003203E0021FB04B52
:1012000003EB0232D2F8203401228A4093430428AF
:1012100004DA4FF0402202EB003203E0021FA84E36
:1012200006EB0232C2F82034042804DA4FF04022E0
:1012300002EB003203E0021FA14B03EB0232D2F8B3
:10124000003401228A409343042804DA4FF04022FC
:1012500002EB003203E0021F994E06EB0232C2F8A5
:101260000034042804DA4FF0402202EB003203E09D
:10127000021F934B03EB0232D2F8143501228A404D
:101280001343042804DA4FF0402202EB003203E05B
:10129000021F8B4E06EB0232C2F8143593E004288D
:1012A00004DA4FF0402202EB003203E0021F844BCD
:1012B00003EB0232D2F81C3501228A401343042882
:1012C00004DA4FF0402202EB003203E0021F7C4EB2
:1012D00006EB0232C2F81C35042804DA4FF0402233
:1012E00002EB003203E0021F754B03EB0232D2F82F
:1012F000283501228A409343042804DA4FF0402223
:1013000002EB003203E0021F6D4E06EB0232C2F820
:101310002835042804DA4FF0402202EB003203E0C3
:10132000021F674B03EB0232D2F8203401228A40BD
:101330009343042804DA4FF0402202EB003203E02A
:10134000021F5F4E06EB0232C2F82034042804DA92
:101350004FF0402202EB003203E0021F584B03EB38
:101360000232D2F8003401228A401343042804DAFE
:101370004FF0402202EB003203E0021F504E06EB1A
:101380000232C2F80034042804DA4FF0402202EBA3
:10139000003203E0021F4A4B03EB0232D2F80C3555
:1013A00001228A401343042804DA4FF0402202EB62
:1013B000003203E0021F424E06EB0232C2F80C3547
:1013C00001E0032500BF00BF7DBB042804DA4FF015
:1013D000402202EB003203E0021F394B03EB0232E2
:1013E000D2F8003401228A401A40CA40EAB1E278B9
:1013F00022B1012A21D0022A5BD13CE0042804DA80
:101400004FF0402202EB003203E0021F2C4B03EBB3
:101410000232D2F8003501228A401343042805DA4B
:101420004FF0402202EB003204E045E0021F244E60
:1014300006EB0232C2F800353DE0042804DA4FF032
:10144000402202EB003203E0021F1D4B03EB02328D
:10145000D2F8043501228A401343042804DA4FF0FD
:10146000402202EB003203E0021F154E06EB02326F
:10147000C2F804351FE0042804DA4FF0402202EBE2
:10148000003203E0021F0E4B03EB0232D2F80835A4
:1014900001228A401343042804DA4FF0402202EB71
:1014A000003203E0021F064E06EB0232C2F8083596
:1014B00001E0052500BF00BF00E00125284670BD02
:1014C000004002402DE9F04104460D4616462946EB
:1014D000204600F0FAFB0746002F56D1042C04DA10
:1014E0004FF0402000EB043003E0201F284901EBBF
:1014F0000030D0F800040121A9400840E84000284D
:1015000042D016B1012E3CD11DE0042C04DA4FF07C
:10151000402000EB043003E0201F1D4901EB0030A8
:10152000D0F8FC130120A8408143042C04DA4FF0CA
:10153000402000EB043003E0201F154A02EB00308E
:10154000C0F8FC131FE0042C04DA4FF0402000EB3D
:10155000043003E0201F0E4901EB0030D0F8FC13EB
:101560000120A8400143042C04DA4FF0402000EB96
:10157000043003E0201F064A02EB0030C0F8FC13E1
:1015800001E0052700BF00E005273846BDE8F081EF
:101590000040024070B50446002604EB4401284A8E
:1015A000505C00F04FF80546002D46D0A86940F089
:1015B0000100A8610D2C38D2DFE804F0070B0F13EF
:1015C000171B1F23272B2F3338001320FFF774FA24
:1015D0002EE01520FFF770FA2AE01720FFF76CFACB
:1015E00026E02320FFF768FA22E04620FFF764FA9E
:1015F0001EE05C20FFF760FA1AE05E20FFF75CFA5D
:1016000016E06020FFF758FA12E06220FFF754FA64
:101610000EE06420FFF750FA0AE06620FFF74CFA6C
:1016200006E06820FFF748FA02E000BF012600BF8D
:1016300000BF012E02D062B600E00426304670BD25
:1016400008000020014600200D2920D2DFE801F02B
:1016500007090B0D0F11131517191B1D20000E483C
:1016600018E00E4816E00E4814E00E4812E00E484E
:1016700010E00E480EE00E480CE00E480AE00E485E
:1016800008E00E4806E00E4804E00E4802E000BF05
:10169000002000BF00BF704700000340001003405F
:1016A000002003400030034000400340005003404E
:1016B000006003400070034000C0034000D00340BE
:1016C00000E0034000F0034070B500263C4800787D
:1016D000002872D100246AE004EB44003949085C18
:1016E0000C2805DA04EB440008444078022801DBAA
:1016F00002265EE004EB44003249085C05280BDC5E
:101700003148006804EB44012E4A525C01219140AB
:1017100008432D49086011E004EB44002949085CA6
:10172000062190FBF1F201FB1201012088402649BD
:1017300058310968084324495831086004EB4401D2
:10174000204A505CFFF77EFF05466DB3286840F0E5
:101750000400286004EB44001A490844407820B98A
:10176000686840F0010068600DE004EB4400154932
:1017700008444078012804D1686840F0020068609D
:1017800001E0022615E0686820F01000686004EBB4
:1017900044000C490844807840B904EB4401094AEC
:1017A000505CFFF7F7FE01E0042602E0641C032C06
:1017B00092DB00BF012002490870304670BD000076
:1017C000110000200800002004E60F40024600201F
:1017D000032A00DC09B9012002E0024B43F8221081
:1017E00070470000E40000202DE9F04F2DED108B34
:1017F00083B006468846174600200290032E0DDA75
:10180000052E03DC4FF6FF70804507D8012F08D066
:10181000E848874205D0B7F57A7F02D001200290D0
:10182000C2E1052E01DD012000E00020054606EBA7
:101830004601E14A505CFFF705FF0446002C7DD0CD
:101840009FEDDE0BB0EE40AAF0EE60AA9FEDDB0B41
:101850008DED000B4FF00009CB469FEDD80BB0EE9D
:10186000408AF0EE608A012F09D0B7F57A7F0CD05C
:10187000D04840423844B0B1012823D121E040464D
:1018800000F0AEFE41EC180B1CE0404600F0A8FE54
:1018900041EC190B9FEDCB0B53EC102B00F0D4FC5B
:1018A00041EC180B0EE0404600F09AFE41EC190B9B
:1018B0009FEDC60B53EC102B00F0C6FC41EC180B4F
:1018C00000E000BF00BF9FEDC30BB0EE40AAF0EEFA
:1018D00060AA15B14FF0FF3101E04FF6FF710846E5
:1018E00000F07EFE41EC190B15B14FF6FF7100E0E0
:1018F000FF21084600F05DFE41EC1C0B9FEDB70B8D
:1019000053EC102B00F0A0FC41EC1B0B53EC192BFB
:1019100000F0B6FECDE9000153EC1A2B51EC180B88
:1019200000F072FE08D39DED000B53EC102B51EC30
:10193000180B00F0A3FF04D2032000E031E1029075
:101940002EE115B14FF0FF3101E04FF6FF7108466F
:1019500000F046FE41EC1E0B9FEDA00B53EC102B4C
:1019600051EC180B00F08CFE41EC1F0B53EC1E2BBE
:1019700000F06AFC41EC1D0B00F0BEFD824600F059
:1019800018FE41EC190B15B14FF0FF3101E04FF695
:10199000FF71084600F024FE41EC1D0B9FED8F0BFC
:1019A00053EC102B51EC180B00F06AFE41EC1E0BAF
:1019B00053EC1D2B00F048FC41EC1C0B53EC192B95
:1019C00000F092FF41EC1B0B9FED7C0B53EC102BB6
:1019D00000F054FF25D215B14FF0FF3101E04FF672
:1019E000FF71084600F0FCFD41EC1C0B9FED7B0BEA
:1019F00053EC102B51EC180B00F042FE41EC1D0B88
:101A000053EC1C2B00F020FC41EC1B0B9FED750BE5
:101A100053EC102B00F064FB41EC190B00F06CFD53
:101A20001CE015B14FF0FF3101E04FF6FF710846A1
:101A300000F0D6FD41EC1B0B9FED680B53EC102B17
:101A400051EC180B00F01CFE41EC1C0B53EC1B2B53
:101A500000F0FAFB41EC190B00F04EFD1FFA80F983
:101A600035B90020A063A06B40EA0900A06306E03E
:101A70000020A063A06B09F0FF010843A063484663
:101A800000F0AEFD41EC1F0B9FED540B53EC102BFF
:101A900000F0DAFB41EC1E0B53EC1E2B51EC180B43
:101AA00000F0D2FB41EC1D0B00F026FD824600F059
:101AB00080FD41EC1B0B484600F092FD41EC1E0BF3
:101AC0009FED460B53EC102B00F0BEFB41EC1D0BC1
:101AD00053EC1D2B51EC180B00F0B6FB41EC1C0B2A
:101AE00053EC1B2B00F000FF41EC190B9FED330B67
:101AF00053EC102B00F0C2FE1FD2484600F070FDE0
:101B000041EC1D0B9FED350B53EC102B00F09CFBB3
:101B100041EC1C0B53EC1C2B51EC180B00F094FB0C
:101B200041EC1B0B9FED2F0B53EC102B00F0D8FA60
:101B300041EC190B00F0E0FC16E0484600F050FDC7
:101B400041EC1C0B9FED250B53EC102B00F07CFBA4
:101B500041EC1B0B53EC1B2B51EC180B00F074FBEE
:101B600041EC190B00F0C8FC8346C4F828B0E068CB
:101B700040F00100E060E06840F00200E06006EB49
:101B800046000D4908448078012809D100BFE0696A
:101B900000F001000028FAD0606A40F001006062A5
:101BA00001E00420029000BF029803B0BDEC108B4E
:101BB000BDE8F08F40420F00080000200000000048
:101BC000000000000000000000408F400000000006
:101BD00080842E418DEDB5A0F7C6703E0000000058
:101BE00080846E41000000000000F03F2DE9F041CC
:101BF00005460026032D01DB01261AE005EB450111
:101C00000D4A505CFFF71EFD044684B1E06820F0E9
:101C10000100E0602846FFF715FD406A40F001072B
:101C20002846FFF70FFD47620020A06200E004266F
:101C300000BF3046BDE8F08108000020F8B504463A
:101C40000D460026062C01DA082D01DB012610E0E6
:101C50000948006800908DF800408DF801506846F2
:101C6000FFF78EF807460FB1012000E0002006467E
:101C700000BF3046F8BD0000C82A00002DE9F04141
:101C800004460D460026062C01DA082D01DB01264C
:101C90000BE0002229462046FFF714FC07460FB14F
:101CA000012000E00020064600BF3046BDE8F0817C
:101CB00010B50024FEF712FF044614B9FEF768FFC2
:101CC00001E000BFFEE7002010BD0246062A01DB4E
:101CD00001207047082903DA052A03D1042901DD10
:101CE0000220F6E70020F4E72DE9F0412DED088B06
:101CF00005460C4616460027642C41DC304600F0B1
:101D00006FFC41EC190B204600F06AFC41EC1B0B08
:101D10009FED1E0B53EC102B00F096FA41EC1A0BC2
:101D200053EC192B00F0ACFC41EC180B00F014FC48
:101D300005EB4501174A02EB41014880304600F0AF
:101D40004FFC41EC190BC4F1640000F032FC41EC93
:101D50001B0B9FED0E0B53EC102B00F075FA41ECB2
:101D60001A0B53EC192B00F08BFC41EC180B00F014
:101D7000F3FB05EB4501074A02EB4101888000E0D7
:101D800002273846BDEC088BBDE8F081000000005A
:101D90000000594014010020F8B50025FFF794FC1D
:101DA00005460DB102252EE0002429E0002620E0A2
:101DB00004EB4400154901EB400010F816008DF8C3
:101DC000000004EB440001EB400000EB46004078CB
:101DD0008DF8010001208DF8020000208DF803002D
:101DE0006846FEF7CDFF05460DB1022503E0701CE5
:101DF000C6B2032EDCDB00BF05B103E0601CC4B239
:101E0000042CD3DB00BF2846F8BD0000CC2A00001C
:101E1000F8B50446002634480078012861DA042C1D
:101E20005FDA31480078401C2F4908702F48047051
:101E3000012004EB44012E4A02F8110004EB440097
:101E4000114601EB4000408800284BD000251EE0E1
:101E500004EB4400274901EB400010F815008DF811
:101E6000000004EB440001EB400000EB450040782B
:101E70008DF801009DF801109DF800000122FFF788
:101E800021FB06460EB1022603E0681CC5B2032DF5
:101E9000DEDB00BF01201549097801EB4101144A3E
:101EA00002EB4101487004EB4400114601EB400095
:101EB000808828B904EB440001EB4000408888B9D1
:101EC0000D490220FFF782FC04EB4400084A02EBB4
:101ED000400041884FF47A720220FFF785FC0646E5
:101EE00000E002263046F8BD130000201400002058
:101EF00014010020CC2A0000451F000070B50446E4
:101F00000025042C17DA04EB44000C4911F81000EA
:101F1000012811D10220FFF769FE054665B90020AE
:101F200004EB4401054A02F8110005480078401E00
:101F30000349087000E00125284670BD1401002007
:101F40001300002070B52948007800EB40002849B4
:101F500001EB40004078012811D10025234800788A
:101F600000EB400001EB4000868800201F49097803
:101F700001EB41011E4A02EB4101487011E00125CD
:101F80001A48007800EB4000194901EB40004688F0
:101F900001201649097801EB4101154A02EB410184
:101FA00048700220FFF722FE002416E00F4A127844
:101FB00002EB42020F4B03EB420202EB4402517868
:101FC0000A4A127802EB420203EB420212F81400B2
:101FD0002A46FFF777FA601CC4B2032CE6DB4FF405
:101FE0007A7231460220FFF7FFFB70BD140000201B
:101FF00014010020CC2A000010B50146002233480D
:10200000007810B13248006808B901225CE04FF056
:10201000E0231B6923F002034FF0E0242361DFED8E
:102020002D0AB0EE600A0020294B1B681B7893B97B
:10203000DFED290AB0EE600A00EE901AF8EE600AB1
:1020400080EE801AF7EE000A71EE200AFCEEE00A3C
:1020500010EE900A16E01E4B1B681B78012B11D165
:10206000DFED1E0AB0EE600A00EE901AB8EE601ABC
:10207000C1EE000AB7EE001A70EE810AFCEEE00A2B
:1020800010EE900AB0F1807F00D200B902224FF02A
:10209000E023586100234FF0E024A36123461B692D
:1020A00043F00103236100BF4FF0E0231B69C3F33A
:1020B0000043002BF8D04FF0E0231B6923F001030D
:1020C0004FF0E024236100BF104610BD0000002047
:1020D00004000020000000006F1283396F120339E2
:1020E00010B591EA030F48BF83F0004300F1048468
:1020F000841A71EB030C05D2121943EB0C03001B7D
:1021000061EB0C01DFF824E14FEA1154A4EB135CFE
:102110001EEA430F18BF9EEA445F73D023EA0E0302
:10212000DCF1200E21EA045143F4801332D322FA69
:102130000CFE10EB0E0023FA0CFE41EB0E01CCF16D
:10214000200E03FA0EFE10EB0E0051F10001B1F566
:10215000801FCCF1200E32D201EB045112FA0EF2A4
:10216000BDE8104058BF7047401C38BF5FEA4202CC
:1021700018BF7047002814BF20F0010041F1000192
:102180004FEA410313F5001F38BF7047A1F1C0416A
:1021900000F06EBB012A43EB0302ACF1200CDCF132
:1021A0001F0E32BF4FF0000E23FA0CF310EB0300AA
:1021B00041EB0451B4EB115FD0D0A1EB045101F518
:1021C000801149085FEA300001EB04510ED350F151
:1021D000000038BF12FA0EFE08D1BDE81040C9E772
:1021E000401C38BF5FEA4202CAD1C3E7BDE81040D5
:1021F0004FEA410313F5001F38BF7047A1F1C041FA
:1022000000F036BB9EEA445F08D011EA5E0FBDE8DD
:10221000104004BF01F0004100207047BDE81040AD
:1022200070B500F0D7FA00BF64FBBE3E0000E0FFCF
:10223000491058BFC1F140415B1058BFC3F1404342
:102240008B42EFF3008070472DE9C04130B4DFF8D6
:10225000A0C23CEA111418BF3CEA131400F0EC8051
:1022600081EA03051CEA111444EAD57418BF1CEA7C
:10227000131500F0C780A4EB05044FF0004545EAB4
:10228000C12145EAC32341EA505143EA525304F1C4
:102290007F74994204F500344FEAC0204FEAC2220D
:1022A00008BF904200F09C804FEA13650FF2401681
:1022B000765D4FEA134506FB05F7C7F1807706FB0D
:1022C00007F74FEAD737A7FB03687642C8F580388F
:1022D000A7FB06CE38BFA8F1010807FB08E64FF0C0
:1022E000000EA6FB028CE6FB03CEDCF1000CCEF167
:1022F000004E38BFAEF1010EA6FB0C584FF00007A0
:102300004FF00005E6FB0E87A1FB08C6A0FB07CE39
:1023100016EB0E0645F10005E1FB076515F1E04EF1
:102320007EBFA4F580345FEA46066D4116F1800752
:1023300045F100054FEA17274FEA066647EA0567A9
:10234000A6F1DE46B6F1805F4FEA15251FD9384663
:1023500024F0010C05EBC471BCF1FE6F01EB0C1114
:1023600002D8F0BCBDE8008124425CBF01F5801EAC
:102370009EEAC47F02D4F0BCBDE80081244238D478
:10238000F0BCA1F1C041BDE8004100F071BA4FEAD4
:10239000D22242EA43524FEAD323A7FB02864FEAF6
:1023A000D02040EA415007FB03661EEA0E0F4FEAB9
:1023B000D12105FB026658BFA6EB0056B6EB0056CE
:1023C0004FEA520E4EEAC37E18EB0E0E56EB530E3A
:1023D000BDD518EB02085E417F1C55F10005B6E73C
:1023E0004FF480154FF000074FF000064FF0000843
:1023F000ADE7F0BC4FF0000001F1C04101F0004139
:10240000BDE8008111EA0C1F0CEA131500D00CE0A6
:1024100013EA0C1F00F025804FF00000F0BC81EAA9
:10242000030101F00041BDE80081F0BCBDE80041BE
:1024300081EA030100F01CBAF0BCBDE8004170B5B0
:1024400000F0C8F9097EFC3E00F007B881EA0301FC
:102450004FF0000001F00041704781EA030100F0F5
:1024600007BAF0BCBDE800414FF0000021497047B9
:10247000FFFDFBF9F7F5F4F2F0EEEDEBE9E8E6E449
:10248000E3E1E0DEDDDBDAD8D7D5D4D3D1D0CFCDD0
:10249000CCCBCAC8C7C6C5C4C2C1C0BFBEBDBCBB09
:1024A000BAB9B8B7B6B5B4B3B2B1B0AFAEADACAB04
:1024B000AAA9A8A8A7A6A5A4A3A3A2A1A09F9F9EDE
:1024C0009D9C9C9B9A999998979796959594939390
:1024D000929191908F8F8E8E8D8C8C8B8B8A898927
:1024E00088888787868585848483838282818180AA
:1024F0000000FF070000F87F4FEA41034FEA535303
:10250000A3F58063D3F11E03C8BFD3F1210C0CDD0A
:102510004FF0004242EAC12242EA505232FA03FC32
:102520008CEAE17CACEBE1707047102BC4BF00205B
:10253000704703F5787CBCF1FF3F04D06FF0004298
:1025400082EA2100704770B500F044F94992248076
:1025500000207047F2E700004FEA1153A3F58063B3
:10256000D3F11E03A8BFD3F1200C08DB4FF00042CB
:1025700042EAC12252EA505232FA03F0704709424D
:102580000BD4102BC4BF0020704703F5787CBCF13E
:10259000FF3F05D04FF0FF3070474FF0000070470D
:1025A00070B500F017F900BF4992248000207047F1
:1025B000F0E710F0004248BF4042B0FA80F310FA52
:1025C00003F10AD0C3F11D0303F580634FEA4150C4
:1025D00002EB035202EBD12170474FF0000070472D
:1025E000B0FA80F310FA03F10AD0C3F11D0303F52A
:1025F00080634FEA41504FEA035202EBD12170470A
:102600004FF000007047000051EA030C17D41CF58E
:10261000801F58BFBCF5801F00F10680994218BF8B
:10262000704708BF9042704707D711F5801F58BF09
:1026300013F5801F19D499427047894270471CF5E1
:10264000801F08D5BCF5801FF7D58B4218BF704797
:1026500008BF824270474FF4001C1CEB410F38BF8B
:102660001CEB430F01D28B42704770B500F0B2F8FB
:10267000922449004FF000514FF08053FFF7D8BD2E
:10268000DFF848C170B51CEA111E1EBF1CEA131505
:102690009EEA0C0F95EA0C0F00F06F8081EA0304AC
:1026A00023EA4C134EEAD47E21EA4C1141F4801106
:1026B00043F48013AE44A1FB024CA0FB0365AEF1D2
:1026C0007F7E361955EB0C05A1FB034C4CF1000342
:1026D000A0FB021C16EB0C06654153F100030942F6
:1026E00018BF46F0010613F4007F0BD14FEA033107
:1026F0004FEA0530340341EA155140EA16506FF0B5
:1027000003020AE04FEAC3214FEAC520F40241EA7E
:10271000555140EA56506FF0020202EB2E4201EB97
:10272000025585EACE710AD05FEA440C18BF24F046
:10273000004450F1000041F1000120EAD47040F261
:10274000FE7C624500D270BDA84214BF4FF08044A9
:102750004FF04044002E08BF0024BEF1806FA8BF98
:10276000A1F1C041BDE8704080F282804FF00000CE
:1027700001F1C04101F0004170479EEA0C0F0CEAE4
:10278000131518BF95EA0C0F06D04FF0000081EA30
:10279000030E0EF0004170BD00F01CF88900013EF0
:1027A00000F007B800F009B84FEA430C5FEA5C5C40
:1027B00008D081EA030100F05BB84FEA410C5FEA00
:1027C0005C5CF6D14FF00000014970470000FF0744
:1027D0000000F87F0EF1020E2EF0030E5EF8046B7F
:1027E000364205D4012A43EB030515F5001F12D824
:1027F000012841EB010C1CF5001F0CD80ED14FEA4B
:10280000D17C15F5001F0CEB4C0C0CF1020C08BF31
:102810004CEBD37C04E04FF0080C01E04FEAD37C92
:102820000CEB4C0526FA05F606F00706B6F1040C8B
:1028300006D20EEB860CBDE870404CF0010C6047F0
:10284000DFE80CF0090B02024FF000414FF00000EE
:10285000A1F5002170BD19461046012851EB010475
:1028600018BFD4F5001484BF002001F0004170BDF2
:102870000808A0F500114FEA3101704753EA010C36
:1028800017D41CF5801F58BFBCF5801F00F10680CF
:102890008B4218BF704708BF8242704707D713F5B5
:1028A000801F58BF11F5801F19D48B4270479B427F
:1028B00070471CF5801F08D5BCF5801FF7D59942DD
:1028C00018BF704708BF904270474FF4001C1CEBC4
:1028D000430F38BF1CEB410F01D2994270470FB430
:1028E0000CBC03BCFFF7C1BE10B591EA030F48BF93
:1028F00083F000433FF5FCAB841A71EB030C07D265
:1029000012198CF0004C43EB0C03001B61EB0C0123
:10291000DFF8A4E14FEA1154A4EB135C1EEA430F65
:1029200018BF9EEA445F00F0B08023EA6E03524273
:1029300021EA0451C3EB6E0338BF5B1EDCF1200EAD
:1029400025D322FA0CFE10EB0E0043FA0CFE41EBED
:102950000E01CCF1200E03FA0EFE10EB0E0051F129
:102960000001CCF1200E29D412FA0EF201EB045131
:10297000BDE8104058BF7047401C1CBFB2F1004F6B
:10298000704700280CBF491C20F00100704712EB73
:10299000020E43EB030218BF4FF0010E4EEA420253
:1029A000ACF1200CDCF11E0E54D943FA0CFE10EBF6
:1029B0000E0051F1FF31CCF11E0ED5D50EF1010EF6
:1029C00012FA0EFE404141EB010101EB445C5FEA6B
:1029D0005C5C10D910EBDE7001EB045138BFBEF126
:1029E000004FBDE8104018BF704700280CBF491CBD
:1029F00020F00100704730D24FEAD42C11F50011BD
:102A000024F400641BD0B1FA81F20B3AA41AA41E7C
:102A1000D2F12003914030FA03F31943904001EBC7
:102A2000CC71002C01EB0451BDE81040A8BF7047E9
:102A300001F1C0414FF0000001F000417047B0FAD1
:102A400080F310FA03F100D110BDE41A173C4805D9
:102A5000C90AE4E701EB045110BD491001EB045130
:102A6000BDE810404FEA300002E04FF0000170472F
:102A70004A0008BF0042F8D0B2F5001F28BF7047D7
:102A800001F000414FF0000070479EEA445F07D01C
:102A900011EA5E0FBDE8104004BF0021002070471E
:102AA000BDE8104070B5FFF795FE00BF40DFF63E71
:102AB00083F00041104670470000E0FF4FF0407087
:102AC000E1EE100A7047000000000100050100005F
:102AD00000000502000000000503000000000000E7
:102AE00000000000042B0000000000202400000073
:102AF000A8020000282B0000240000206C03000026
:102B0000C4020000000000000000000000000001FE
:102B1000010002010000010000050105020503019A
:082B20001E0205040000000084
:040000050000030DE7
:00000001FF
